:040000008031132810
:100008007E14803120007F08F0000B1A8B1C0E280C
:1000180084315D2470082000FF007E1009008031C3
:100028001528843155248031D200843156248031FA
:10003800D300843157248031D4008431582480314E
:10004800D5003E30840000308500143084313D24D2
:100058007E1020008231372A2000AE0020002308BD
:10006800A6002208A500A20A0319A30A25088400ED
:10007800260885000008A7002708AD002D080319E9
:10008800492925302D06031970282E0A8600870174
:100098001600010403195D282D08A5002508F100A4
:1000A8002E0A86008701413F8A00403F0A008031BE
:1000B800322820002D08A5002E0886008701010897
:1000C80086008701250881000130A5002E088600DA
:1000D8008701250881073228A9012308A6002208DC
:1000E800A500A20A0319A30A25088400260885008A
:1000F8000008AD00003A03194929643A0319882811
:100108000D3A031988283228240886008701010837
:100118008400850102308107003FAB00013FAC003D
:10012800AC1F9F280330A5002508A904AB09AC091A
:10013800AB0A0319AC0AAD01AD0A05302D06031947
:10014800C4282D08A500A601A535A60D1D30250734
:1001580084008430263D8500003FA700013FA800A9
:1001680028082C02031DBA2827082B02031CC428C0
:100178000130A5002508AD0705302D06031DA5286B
:10018800290803390319EE282E0A8600870116006C
:1001980001040319DC282D30A5002508F1002E0ADA
:1001A80086008701413F8A00403F0A008031EE28DF
:1001B8002D302000A5002E08860087010108860042
:1001C8008701250881000130A5002E0886008701D7
:1001D8002508810720002D08A5002508AA00FF3062
:1001E8002000A5002508AA072A0A031932280A3080
:1001F800F9000030FA002A08A500A601A535A60DC9
:100208001D30250784008430263D8500003FF1001D
:10021800013FF2002C08F4002B08F3008331092376
:1002280080317208FC007108FB0083316B23803138
:100238007908303E2000A7002708AD002E0A860066
:10024800870116000104031936292D08A500250881
:10025800F1002E0A86008701413F8A00403F0A00CC
:100268008131F32820002D08A5002E08860087017B
:10027800010886008701250881000130A5002E08A5
:100288008600870125088107F328A201A301080039
:10029800F70030307706031D61298231B1228131A0
:1002A8008231B12281318231B12281318231B12250
:1002B80081318231B12281310D2A31307706031D17
:1002C800752983313D2381318231B12281318231D7
:1002D800B12281318231B12281318231B122813121
:1002E8000D2A32307706031D892983313D23813158
:1002F80083313D2381318231B12281318231B12272
:1003080081318231B12281310D2A33307706031DC4
:100318009D2983313D23813183313D2381318331CF
:100328003D2381318231B12281318231B122813143
:100338000D2A34307706031DB12983313D238131DD
:1003480083313D23813183313D23813183313D2305
:1003580081318231B12281310D2A35307706031D72
:10036800C22983313D23813183313D23813183315A
:100378003D23813183313D2381310A2A3630770686
:10038800031DD3298231B122813183313D2381314B
:1003980083313D23813183313D2381310A2A37302E
:1003A8007706031DE4298231B12281318231B122DD
:1003B800813183313D23813183313D2381310A2AC3
:1003C80038307706031DF5298231B1228131823117
:1003D800B12281318231B122813183313D23813192
:1003E8000A2A39307706031D062A8231B122813163
:1003F8008231B12281318231B12281318231B122FF
:1004080081310A2A45307706031D0D2A83313D23A1
:100418008131F501F6017608803AF400200055088C
:10042800803A7402031D1A2A540875020318222AF6
:1004380000000130F5070030F63D0F2AF501F601FE
:100448007608803AF40020005508803A7402031DAB
:100458002F2A540875020318080000000130F50718
:100468000030F63D242A8331FB2382312000BC0171
:1004780042034304031D422A8B17432A8B138431FA
:100488002724823184314F24823130302000AF005C
:100498008430B0008331D023823122009813083091
:1004A8008331E623823172082000C1007108C00040
:1004B80009308331E623823172082000BF007108B9
:1004C800BE0021009D012200981399010D163730B6
:1004D8002000AF008430B0000230B1000030B2001C
:1004E8000430B3000030B40048308331982382319F
:1004F80048302000BB003B08BD003D08860087014E
:1005080001080319942A3D088600870101088131F2
:100518004C21823101302000BB003B08BD07812AF5
:10052800220098130D1220004203430403196300AC
:100538002000C601C7014708803ABB0080303B0253
:10054800031DA82AFA3046020318512A0000013078
:100558002000C6070030C73D9F2A22008E15F201F1
:10056800F3017308803AF10020005508803A7102BF
:10057800031DC02A540872020318C82A000001305B
:10058800F2070030F33DB52AF201F3017308803A0F
:10059800F10020005508803A7102031DD52A54083D
:1005A80072020318DD2A00000130F2070030F33D23
:1005B800CA2AF201F3017308803AF10020005508B5
:1005C800803A7102031DEA2A540872020318F22ABB
:1005D80000000130F2070030F33DDF2A22008E11BF
:1005E800F201F3017308803AF10020005508803ABF
:1005F8007102031D012B5408720203180800000041
:100608000130F2070030F33DF62AF601F7017108D0
:1006180072040319382BF801F80AF21B1D2B01305C
:10062800F135F20D890B142B0130F5007508F80728
:10063800112B0130F635F70D890B1E2B7208740249
:10064800031D282B71087302031C2F2B7108F3025A
:100658007208F43B76140130F236F10C890B302B1A
:100668000130F802031D1D2B7708F2007608F1000F
:10067800080022008E15F201F3017308803AF10098
:1006880020005508803A7102031D4C2B5408720251
:100698000318542B00000130F2070030F33D412BC2
:1006A80022008E11F201F3017308803AF100200054
:1006B8005508803A7102031D632B5408720203180F
:1006C800080000000130F2070030F33D582B79088C
:1006D8007A040319932B2000A101A10AFA1B7E2B8F
:1006E8000130F935FA0D890B752B0130A00020086F
:1006F800A107722B7A087C02031D842B79087B02E0
:10070800031C8A2B7908FB027A08FC3B0130FA3675
:10071800F90C890B8B2B0130A102031D7E2B7C0861
:10072800FA007B08F90008002000B6003608B5007A
:100738003508B800B901BA013130B5003508B7003D
:100748003008A3002F08A2003730B5003508A400F0
:100758003830803130202000380886008701810138
:10076800080022008C018D018E01303021008C00A0
:10077800E0308D00F3308E00CD3023008E008D01E7
:1007880010308C00F03024008D0038308C002100AF
:10079800951322009D0108002000B3016130B400C8
:1007A8000430B5003130B1003108B2003008A30080
:1007B8002F08A2003230B1003108A4003330803154
:1007C80030200800F4007408F300F30DF30D210045
:1007D8001D087306833973069D001D1421009D149E
:1007E8009D18F42B1C08F2001B08F1000800833147
:1007F800B5238331843143248331843159248331AF
:100808008431072408008B10210015176230F1008D
:100818000430F200843149240B16080020005608E1
:1008280057040319080057088A0056080A0084313B
:100838000800013400340A34003464340034E834E5
:10084800033410342734013021009D00F2309E001B
:100858009F019B019C010800533474346134723445
:1008680074340A340034253464344534253464340B
:100878000034640080010131890B3E2C00342100D2
:100888009901980127009B01080072082000D700F1
:100898007108D6000800A43022009800083099009A
:1008A8000800013400340434003416302100970065
:0E08B80008008B10843112240800080008008C
:020000040001F9
:04000E00E4F10FFE0C
:00000001FF
