:040000008031132810
:100008007E14803120007F08F0000B1A8B1C0E280C
:100018008431F62470082000FF007E10090080312A
:1000280015286D308400843085005C3086000030EF
:10003800870011308431DA2480317E3084008430A6
:100048008500D1308600003087000F308431DA24F3
:10005800803140308400003085001C308431E02439
:100068008031A03084000030850031308431E024B4
:100078008031203084000130850036308431E0241E
:100088007E1020008331252BF90030307906031DBE
:100098004F280330542831307906031D5C2801307D
:1000A800F1000030F2008231A32280310330682849
:1000B80032307906031D70280130F1000030F2005B
:1000C8008231A32280310130F1000030F200823108
:1000D800A32280310330832833307906031D8B280F
:1000E8000130F1000030F2008231A322803101306A
:1000F800F1000030F2008231A32280310130F1009A
:100108000030F2008231A32280310330A528343038
:100118007906031DAD280130F1000030F20082316C
:10012800A32280310130F1000030F2008231A32295
:1001380080310130F1000030F2008231A322803199
:100148000130F1000030F2008231A3228031033007
:10015800572935307906031DCE280130F1000030CB
:10016800F2008231A32280310130F1000030F20028
:100178008231A32280310130F1000030F200823157
:10018800A32280310130F1000030F2008231A32235
:100198008031562936307906031DEF280330F100E7
:1001A8000030F2008231A32280310130F1000030AA
:1001B800F2008231A32280310130F1000030F200D8
:1001C8008231A32280310130F1000030F200823107
:1001D800A3228031562937307906031D10290330B0
:1001E800F1000030F2008231A32280310330F100A7
:1001F8000030F2008231A32280310130F10000305A
:10020800F2008231A32280310130F1000030F20087
:100218008231A3228031562938307906031D3129CD
:100228000330F1000030F2008231A3228031033024
:10023800F1000030F2008231A32280310330F10056
:100248000030F2008231A32280310130F100003009
:10025800F2008231A3228031562939307906031DF4
:1002680052290330F1000030F2008231A32280319C
:100278000330F1000030F2008231A32280310330D4
:10028800F1000030F2008231A32280310330F10006
:100298000030F2008231A322803156294530790698
:1002A800031D5D290130F1000030F2008231A322E4
:1002B8008031F701F8017808803AF60020006208DA
:1002C800803A7602031D6A296108770203187229A9
:1002D80000000130F7070030F83D5F29F701F80109
:1002E8007808803AF60020006208803A7602031DFA
:1002F8007F29610877020318080000000130F7071A
:100308000030F83D74292000AE0020002308A60024
:100318002208A500A20A0319A30A250884002608B2
:1003280085000008A7002708AD002D080319A02A9A
:1003380025302D060319C7292E0A860087011600C5
:1003480001040319B4292D08A5002508F1002E0A77
:1003580086008701413F8A00403F0A008131892990
:1003680020002D08A5002E088600870101088600B8
:100378008701250881000130A5002E088600870125
:10038800250881078929A9012308A6002208A500B4
:10039800A20A0319A30A2508840026088500000874
:1003A800AD00003A0319A02A643A0319DF290D3A6F
:1003B8000319DF2989292408860087010108840098
:1003C800850102308107003FAB00013FAC00AC1F44
:1003D800F6290330A5002508A904AB09AC09AB0A26
:1003E8000319AC0AAD01AD0A05302D0603191B2A05
:1003F8002D08A500A601A535A60DBA30250784004D
:100408008430263D8500003FA700013FA80028084A
:100418002C02031D112A27082B02031C1B2A01305A
:10042800A5002508AD0705302D06031DFC29290860
:1004380003390319452A2E0A86008701160001048C
:100448000319332A2D30A5002508F1002E0A86004D
:100458008701413F8A00403F0A008231452A2D30FA
:100468002000A5002E088600870101088600870164
:10047800250881000130A5002E088600870125087F
:10048800810720002D08A5002508AA00FF302000BC
:10049800A5002508AA072A0A031989290A30F9009C
:1004A8000030FA002A08A500A601A535A60DBA3025
:1004B800250784008430263D8500003FF100013F78
:1004C800F2002C08F4002B08F30083318F238131CC
:1004D8007208FC007108FB008331C323813179085D
:1004E800303E2000A7002708AD002E0A86008701AD
:1004F8001600010403198D2A2D08A5002508F1000E
:100508002E0A86008701413F8A00403F0A00823157
:100518004A2A20002D08A5002E0886008701010818
:1005280086008701250881000130A5002E08860075
:100538008701250881074A2AA201A3010800220091
:100548000E1671037204031DC12AF401F501750822
:10055800803AF30020006208803A7302031DB62A2D
:10056800610874020318C12A0000103022008E06A8
:100578000130F4070030F53DAB2A033071067204F0
:10058800031D0E2BF401F5017508803AF3002000D5
:100598006208803A7302031DD32A610874020318A3
:1005A800DE2A0000103022008E060130F4070030E9
:1005B800F53DC82AF401F5017508803AF3002000DA
:1005C8006208803A7302031DEB2A6108740203185B
:1005D800F62A0000103022008E060130F4070030A1
:1005E800F53DE02AF401F5017508803AF300200092
:1005F8006208803A7302031D032B61087402031812
:100608000E2B0000103022008E060130F407003057
:10061800F53DF82A22000E12F401F5017508803A1A
:10062800F30020006208803A7302031D1D2B610845
:1006380074020318080000000130F4070030F53D8B
:10064800122B2000BC01BD0184318D248331200090
:10065800BE0146034704031D332B8B17342B8B1322
:100668008431C4248331CD302000AF008430B00001
:100678008431422483312200BE018E150830843132
:100688005824833172082000CD007108CC00023054
:10069800CC000030CD0009308431582483317208F1
:1006A8002000CB007108CA000430CA000030CB001B
:1006B80021009D0122008E11D4302000AF0084302B
:1006C800B0004D08B2004C08B1004B08B4004A080D
:1006D800B300CB308331F0238331CB302000BB0013
:1006E8003B08BF003F088600870101080319892BD2
:1006F8003F08860087010108803148208331013096
:100708002000BB003B08BF07762B46034704031DA8
:100718003F2B63003F2BF601F701710872040319A0
:10072800BE2BF801F80AF21BA32B0130F135F20DAC
:10073800890B9A2B0130F5007508F807972B0130C3
:10074800F635F70D890BA42B72087402031DAE2B26
:1007580071087302031CB52B7108F3027208F43B8D
:1007680076140130F236F10C890BB62B0130F80201
:10077800031DA32B7708F2007608F100080079081A
:100788007A040319EB2B2000A101A10AFA1BD62B2E
:100798000130F935FA0D890BCD2B0130A000200866
:1007A800A107CA2B7A087C02031DDC2B79087B027F
:1007B800031CE22B7908FB027A08FC3B0130FA366D
:1007C800F90C890BE32B0130A102031DD62B7C0801
:1007D800FA007B08F90008002000B6003608B500CA
:1007E8003508B800B901BA013130B5003508B7008D
:1007F8003008A3002F08A2003730B5003508A40040
:10080800383081318721200038088600870181012E
:10081800080022008C018D018E01303021008C00EF
:10082800F0308D00E7308E00CD3023008E008D0132
:1008380010308C00F03024008D0038308C002100FE
:10084800951322009D01080031343034313430349E
:10085800313430343134313431343134303431346A
:10086800303431343034303431343134313431345B
:100878003034303430343134313400342000B30172
:10088800FD30B4000430B5003130B1003108B20099
:100898003008A3002F08A2003230B1003108A400AC
:1008A8003330813187210800F4007408F300F30D18
:1008B800F30D21001D087306833973069D001D146E
:1008C80021009D149D18662C1C08F2001B08F100DD
:1008D80008009A34D53441340134003414340034D7
:1008E800FF340334FA348434283484343734843479
:1008F800993484344034FF344434DB344C34433446
:1009080049343734BE344434C134B6344334923471
:10091800B03484310D2484318431E6248431843127
:10092800F22484318431A424080031343034313441
:1009380030343134303431343134313431340034BA
:100948008B1021001517FE30F1000430F2008431BD
:10095800EC240B16080020006D086E04031908002B
:100968006E088A006D080A008431080001340034DA
:100978000A34003464340034E8340334103427343F
:10098800013021009D00F0309E009F019B019C01D9
:100998000800533474346134723474340A340034C3
:1009A800253464344534253464340034FE001200A0
:1009B8001E00FE0BDB2C0034640080010131890B22
:1009C800E12C003421009901980127009B010800BF
:1009D80072082000EE007108ED00080016302100B2
:1009E800970008008B108431AF24080032342E346D
:0609F800003408000800B5
:020000040001F9
:04000E00E4F10FFE0C
:00000001FF
