:1000000080312B28D03407347E14803120007F08C3
:10001000F1000B1F15282100111E15282000111EAC
:1000200015289531E125803126280B1F2128210034
:10003000911E21282000911E21289531C52580314F
:1000400026280B1A8B1C26289431D62471082000F0
:10005000FF007E10090080312D2880310220803180
:10006000FA00803103208031FB00013084008830A9
:10007000850052308600013087001E309431EA241A
:100080008031E1308400003085000E309431E4246A
:100090008031203084000130850032309431E424F6
:1000A0008031A03084000130850041309431E42457
:1000B000803120308400023085001E309431E424E9
:1000C0007E102000803164282100CC01CD019531C3
:1000D000222580312100CE01220040034104031D6E
:1000E00073288B1774288B138B170B179431F024FC
:1000F0008031A4302000B5009830B60095314625F7
:1001000080312300A00122008E15083095315C2536
:10011000803173082000A1007208A00095313125BC
:100120008031200020082200A300200021082200A6
:10013000A400200022082200A50023082000CF00F0
:10014000220024082000D000220025082000D10031
:10015000220067082000A100220066082000A000FD
:1001600096311C26803120002008A6002108A70017
:100170002208A800220052082000A90022005308EB
:100180002000AA00220054082000AB008A31A622D9
:10019000803120002608D2002708D3002808D40088
:1001A0008B314F23803120004F082100E4002000D4
:1001B00050082100E500200051082100E600093028
:1001C00095315C25803173082000A1007208A000E1
:1001D000953131258031200020082200A000200028
:1001E00021082200A100200022082200A2002008ED
:1001F0002000CF00220021082000D0002200220889
:100200002000D100220067082000A100220066081B
:100210002000A00096311C26803120002008A60076
:100220002108A7002208A800220052082000A900E7
:10023000220053082000AA00220054082000AB002E
:100240008A31A622803120002608D2002708D30058
:100250002808D4008B314F23803120004F08210023
:10026000E100200050082100E20020005108210098
:10027000E3009D0122008E11C3302100E10078309F
:10028000E2004430E3000F30E4007830E500443011
:10029000E6000030BB000030BC004030BD00640808
:1002A000B8006508B9006608BA008D31BE258031F6
:1002B00021003808D2003908D3003A08D4000030B1
:1002C000BB004030BC004030BD006408B800650889
:1002D000B9006608BA008D31BE258031210038088A
:1002E000D5003908D6003A08D70022005B08200064
:1002F000CF0022005C082000D00022005D08200012
:10030000D100210052082000D20021005308200013
:10031000D300210054082000D4008B314F238031BA
:1003200020004F08DF005008E0005108E1002200E3
:100330005E082000CF0022005F082000D0002200CD
:1003400060082000D100210055082000D2002100C3
:1003500056082000D300210057082000D4008B311C
:100360004F23803120004F08E2005008E30051087D
:10037000E4008C31C824803120005F082100D800BF
:10038000200060082100D900200061082100DA0067
:1003900064082000CF00210065082000D000210063
:1003A00066082000D100220058082000D200220058
:1003B00059082000D30022005A082000D4008B31B5
:1003C0004F23803120004F08DF005008E000510823
:1003D000E100210058082000E20021005908200017
:1003E000E30021005A082000E4008C31C824803149
:1003F00020005F082100DB00200060082100DC00F5
:10040000200061082100DD00220055082000DF00E7
:10041000220056082000E000220057082000E100DA
:1004200021005B082000E20021005C082000E300BE
:1004300021005D082000E4008C31C82480312000B8
:100440005F082200AC00200060082200AD00200000
:1004500061082200AE0000302100BB000030BC006B
:100460004030BD006108B8006208B9006308BA00F6
:100470008D31BE25803121003808D2003908D300E3
:100480003A08D4000030BB004030BC004030BD0012
:100490006108B8006208B9006308BA008D31BE2552
:1004A000803121003808D5003908D6003A08D70035
:1004B00022005B082000CF0022005C082000D00052
:1004C00022005D082000D100210052082000D20047
:1004D000210053082000D300210054082000D4003C
:1004E0008B314F23803120004F08DF005008E0009F
:1004F0005108E10022005E082000CF0022005F08C2
:100500002000D000220060082000D1002100550802
:100510002000D200210056082000D30021005708F7
:100520002000D4008B314F23803120004F08E2009F
:100530005008E3005108E4008C31C82480312000C9
:100540005F082100D800200060082100D9002000A9
:1005500061082100DA0061082000CF002100620854
:100560002000D000210063082000D100220058089C
:100570002000D200220059082000D30022005A088F
:100580002000D4008B314F23803120004F08DF0042
:100590005008E0005108E100210058082000E20066
:1005A000210059082000E30021005A082000E4003F
:1005B0008C31C824803120005F082100DB0020003E
:1005C00060082100DC00200061082100DD0022001D
:1005D00055082000DF00220056082000E00022001D
:1005E00057082000E10021005B082000E200210004
:1005F0005C082000E30021005D082000E4008C314D
:10060000C824803120005F082200A9002000600873
:100610002200AA00200061082200AB002908200067
:10062000DF0022002A082000E00022002B08200022
:10063000E10022002C082000CC0022002D08200020
:10064000CD0022002E082000CE009431F924803104
:1006500020004C08E2004D08E3004E08E4008C3115
:10066000C824803120005F082100CF0020006008EE
:100670002100D000200061082100D10000302000BE
:10068000CF00C830D0004230D1000030DF00C03091
:10069000E0004030E10021004F082000E20021008E
:1006A00050082000E300210051082000E4008C31B4
:1006B000C824803120005F08D2006008D3006108A0
:1006C000D4008B314F23803120004F082200A60038
:1006D000200050082200A700200051082200A80096
:1006E00040302000CF001C30D0004630D100220026
:1006F00026082000D200220027082000D300220074
:1007000028082000D4008B314F23803120004F086F
:100710002200A600200050082200A7002000510857
:100720002200A8002608BB002708BC002808BD003E
:100730003B082000A90022003C082000AA0022005B
:100740003D082000AB005030A600C330A700473062
:10075000A8008A31A622803120002608B60027088A
:10076000B7002808B800893185218031200037087A
:100770002200CF00200036082200CE003B082000D7
:10078000DF0022003C082000E00022003D0820009D
:10079000E1000030F9000130F8008630F700A030A9
:1007A000F60022004E08F2004F08F300890D893B45
:1007B0008909F400F5009631E5268031750820009E
:1007C000C7007408C6007308C5007208C4009731DA
:1007D0008627803120004408CC004508CD0046081B
:1007E000CE009431F924803120004C08E2004D08FD
:1007F000E3004E08E4008C31C824803120005F08FB
:100800002200B800200060082200B9002000610822
:100810002200BA0038082000A90022003908200070
:10082000AA0022003A082000AB004030A6001C308D
:10083000A7004630A8008A31A62280312000260871
:10084000B6002708B7002808B80089318521803113
:10085000200037082200CD00200036082200CC00FE
:10086000B0302000B5009830B60022004F082000BC
:10087000B80022004E082000B70022004D082000DA
:10088000BA0022004C082000B900DB309531FE256B
:100890008031B5302000B5009830B600DB30B700AD
:1008A0000130B8009531462580312200C201C301D4
:1008B0008030A300F130A4004330A500DB302100DC
:1008C000CA004A08E000600886000130870001087D
:1008D00003198F2C600886000130870001088E31D3
:1008E000D4268031AB302000B5009830B60021000E
:1008F00060088600013087000108CA00CB014A0861
:100900002000B70021004B082000B8009531462593
:10091000803101302100CA004A08E007632C220020
:1009200040034104031D962C630081282100DE0151
:10093000DF015F08803ACA0081304A02031DA22C01
:1009400090305E0203188128000000000130210071
:10095000DE070030DF3D992C2000B400200027087E
:10096000AA002608A900A60A0319A70A29088400D4
:100970002A0885000008AB002B08B30033080319D0
:10098000432E253033060319D92C340A86008701FB
:100990001600010403194E2D3308A9002908F4009C
:1009A000340A86008701413F8A00403F0A008431B3
:1009B000AE2CAD01622D2808860087010108840055
:1009C000850102308107003FB100013FB2003108CC
:1009D0003204031DEF2C9D30B1009830B200310875
:1009E00084003208850012000319AE2C340A8600F8
:1009F0008701160001040319132D31088400320801
:100A000085000008A9002908F400340A860087013F
:100A1000413F8A00403F0A00853101302000B10784
:100A20000030B23DEF2C3108840032088500000808
:100A3000A90034088600870101088600013087007C
:100A4000290881000130B1070030B23D0130A90012
:100A500034088600870129088107EF2C28088600C2
:100A60008701010884008501023081070008A90080
:100A70002908B300340A860087011600010403190F
:100A80004E2D3308A9002908F400340A8600870196
:100A9000413F8A00403F0A008531AE2C20003308D8
:100AA000A90034088600870101088600013087000C
:100AB000290881000130A90034088600870129082F
:100AC0008107AE2C2708AA002608A900A60A031948
:100AD000A70A290884002A0885000008B300003A04
:100AE0000319432E633A03192E2D073A03197F2D5C
:100AF0000D3A03197F2D1A3A0319DB2C3A2D2808D9
:100B00008600870101088400850102308107003FCB
:100B1000AF00013FB000B01F962D0330A900290897
:100B2000AD04AF09B009AF0A0319B00AB301B30AA3
:100B3000053033060319BB2D3308A900AA01A935D6
:100B4000AA0D89302907840098302A3D8500003F8E
:100B5000AB00013FAC002C083002031DB12D2B0867
:100B60002F02031CBB2D0130A9002908B307053053
:100B70003306031D9C2D2D0803390319E62D340A75
:100B800086008701160001040319D32D2D30A9001A
:100B90002908F400340A86008701413F8A00403F5B
:100BA0000A008531E62D2D302000A900340886008A
:100BB0008701010886000130870029088100013083
:100BC000A90034088600870129088107200033081E
:100BD000A9002908AE00FF302000A9002908AE07AF
:100BE0002E0A0319AE2C0A30A0000030A1002E08F6
:100BF000A900AA01A935AA0D8930290784009830D7
:100C00002A3D8500003FF200013FF3003008F50067
:100C10002F08F40097311727843173082000A300B0
:100C20007208A20096318A26843120002008303EC6
:100C3000AB002B08B300340A8600870116000104BC
:100C400003192F2E3308A9002908F400340A86005E
:100C50008701413F8A00403F0A008631EB2D20008A
:100C60003308A90034088600870101088600013096
:100C70008700290881000130A90034088600870117
:100C800029088107EB2DA601A701080021003008E3
:100C90002F042E04031D532E0030AE008030AF0011
:100CA0003F30B00008007230F2003130F3004430C1
:100CB000F4002E08F5002F08F6003008F7009731F1
:100CC000C32786310318712E22302200BE00003067
:100CD000BF00FF302100AE007F30AF007F30B0009A
:100CE000080021002E08F2002F08F3003008F4005D
:100CF0004930F5003A30F600C430F7009731C32789
:100D000086310318902E22302200BE000030BF0032
:100D100000302100AE000030AF000030B00008000D
:100D200021002E08F2002F08F3003008F4000030F4
:100D3000F5000030F6000030F7009731C327863108
:100D40000318A42E0130A52E00302100B100310877
:100D5000B70037080319C62E2E082000CC0021004A
:100D60002F082000CD00210030082000CE00943153
:100D7000F924863120004C082100AE0020004D08E7
:100D80002100AF0020004E082100B000AA30200052
:100D9000CF00B830D0003F30D10021002E08200015
:100DA000D20021002F082000D300210030082000AD
:100DB000D4008B314F23863120004F082100AE0034
:100DC000200050082100AF00200051082100B00091
:100DD0002E082000EC0021002F082000ED0021004B
:100DE00030082000EE008A310C22863120006C0889
:100DF0002100B20020006D082100B30020006E0821
:100E00002100B40032082000B60021003308200081
:100E1000B700210034082000B800893185218631CF
:100E2000200037082100B600200036082100B50058
:100E300036082000A100210035082000A0009631CE
:100E40001C268631200020082100A0002000210857
:100E50002100A100200022082100A2002E08A300EA
:100E60002F08A4003008A5009631B726863121004E
:100E70002008AE002108AF002208B0002E08A00014
:100E80002F08A1003008A2006030A3009830A40011
:100E90000930A5000030A60088311F2086312100CE
:100EA0002008A7002108A8002208A9003608AB00E6
:100EB0003508AA0088318F20863121002708AE002E
:100EC0002808AF002908B0003708031908002E0AC7
:100ED0007F3003192F067F3003193006031D772F4B
:100EE0000030AE000030AF000030B00008002E0827
:100EF0002000A60021002F082000A70021003008B4
:100F00002000A8000030A9008030AA003F30AB00CC
:100F10008A31A622200026082100AE0020002708E2
:100F20002100AF00200028082100B000080075084B
:100F300003199F2F740873047204031DB02F00302F
:100F4000F2000030F3000030F40008000130F70038
:100F50007708F5070130F436F30CF20C890BAB2F50
:100F6000FE3074050319C92FA62F0130F70077084A
:100F7000F5070130F207003003180130F3070030A5
:100F800003180130F4070130F436F30CF20C890B2E
:100F9000C42FFF3074050319D62FB52F0130F50289
:100FA0000130F235F30DF40D890BD12FF31BDC2F3B
:100FB000023075020318CE2F7518E42FFF30F205AA
:100FC0007F30F305FF30F4050310F50C7508F700CA
:100FD000F801F9011030F735F80DF90D890BEB2FF9
:100FE0007708F2047808F3047908F4047608031902
:100FF0000800F4170800740896313E26080008001F
:101002004034FF344434DB344C34433449343734D1
:10101200BE344434C134B63443349234B0349A3496
:10102200D534413401340034FF340334B9349834B4
:101032001B3498342A3498347E349834210026089C
:10104200F3002508F2000330F4000030F50095317A
:10105200AA25883121002308720784002408733DE1
:101062008500003F2000EC00013FED00023FEE0052
:1010720021002508260403198228FF302100A50734
:10108200FF30A63D2608F3002508F2000330F400E5
:101092000030F5009531AA25883121002308720716
:1010A20084002408733D8500003F2000DF00013FDB
:1010B200E000023FE1006C08CF006D08D0006E082E
:1010C200D100210020082000D200210021082000A8
:1010D200D300210022082000D4008B314F23883115
:1010E20020004F08E2005008E3005108E4008C3170
:1010F200C824883120005F08EC006008ED00610818
:10110200382820006C082100A00020006D08210072
:10111200A10020006E082100A20008002100290879
:1011220028042704031D9C280030A7000030A800D3
:101132000030A900080029087F39AC00AD01AC35A8
:10114200AD0D2C08AA072D08AB3D280D280D01393D
:10115200AC00AD012C08AA072D08AB3DAB1FBE2881
:1011620022302200BE000030BF0000302100A70064
:101172000030A8000030A90008002B08803AAC001B
:1011820081302C02031DC72800302A02031CF028DC
:1011920022302200BE000030BF0021002708F200EA
:1011A2002808F3002908F4000030F5000030F600AA
:1011B2000030F7009731C32788310318E828FF3041
:1011C2002100A7007F30A800FF30A9000800FF30EF
:1011D2002100A7007F30A8007F30A900080021006D
:1011E2002B08AD002A08AC002D0DAD0CAC0C290863
:1011F2002C0680392C06A9002A080139AC00AC0C57
:10120200AC0C28082C067F392C06A8000800220006
:101212000E1672037304031D2529F501F6017608E3
:10122200803AF4007B08803A7402031D1A297A0876
:101232007502031825290000103022008E060130A5
:10124200F5070030F63D1029033072067304031DC2
:101252006F29F501F6017608803AF4007B08803A9E
:101262007402031D36297A08750203184129000009
:10127200103022008E060130F5070030F63D2C2991
:10128200F501F6017608803AF4007B08803A740290
:10129200031D4D297A0875020318582900001030E1
:1012A20022008E060130F5070030F63D4329F50194
:1012B200F6017608803AF4007B08803A7402031D36
:1012C20064297A08750203186F2900001030220081
:1012D2008E060130F5070030F63D5A2922000E1223
:1012E200F501F6017608803AF4007B08803A740230
:1012F200031D7D297A0875020318080000000130D9
:10130200F5070030F63D732920003608BA00370889
:10131200BB003808BC0003103B0D3C0DBD003D086E
:10132200C3004308031D9E290030B9000030B800F5
:101332000030B7000030B60008003608BA0037089F
:10134200BB003808BC001730BC36BB0CBA0C890B8A
:10135200A5293A08BD003D08BE00B717FF30B60503
:10136200FF30B7050030B8053608BF003708C000A7
:101372003808C100C2018E30C302C31FDC294308F2
:10138200803A8F3E0318CE290030B9000030B800F1
:101392000030B7000030B60008000130C236C10C80
:1013A200C00CBF0C890BCF290130BA003A08C30721
:1013B2000319F529CE2918304302031CF229003003
:1013C200B9000030B8000030B7000030B6000800A5
:1013D2000130BF35C00DC10DC20D890BEA290130A4
:1013E200C3024308031DE9293E080319032ABF0962
:1013F200C009C109C209BF0A0319C00A0319C10AF7
:101402000319C20A4208B9004108B8004008B700EF
:101412003F08B600080020006C08F2006D08F300D7
:101422006E08F400A330EF006F08F50097314B27E8
:101432008A312100A41F3F2A20006C08F2006D08A7
:10144200F3006E08F4000030F5000030F6000030C2
:10145200F7009731C3278A310318372A003020005A
:10146200EC008030ED00BF30EE00080000302000BC
:10147200EC000030ED000030EE00080000302100EA
:1014820024021530031923020318080020006C08F7
:10149200B6006D08B7006E08B800893185218A311F
:1014A20020003908C7003808C6003708C5003608CA
:1014B200C400973186278A31200044082100A00009
:1014C200200045082100A100200046082100A200BA
:1014D20020006C08F2006D08F3006E08F400210091
:1014E2002008F5002108F6002208F7009731C327EB
:1014F2008A310318992A00302000DF008030E00092
:10150200BF30E100210020082000E2002100210874
:101512002000E300210022082000E4008C31C824CE
:1015220020005F08EC006008ED006108EE00080092
:10153200210020082000EC00210021082000ED00FD
:10154200210022082000EE00080020002908AC003B
:101552002A08AD002B08AE0003102D0D2E0DAF0092
:101562002F08B4003408031DBD2A0030A600003045
:10157200A7000030A80008002608AC002708AD002C
:101582002808AE0003102D0D2E0DAF002F08B50058
:101592003508031DD32A0030A6000030A700003012
:1015A200A80008000030B1000030B2000030B300E3
:1015B20089303507AC002C08B4022908AC002A088F
:1015C200AD002B08AE001030AE36AD0CAC0C890B62
:1015D200E52A2C08AF002F08B5002608AC00270822
:1015E200AD002808AE001030AE36AD0CAC0C890B45
:1015F200F52A2C08AF002F08B5068030AC002C0865
:10160200B505AA17FF30A905FF30AA050030AB05C2
:10161200A717FF30A605FF30A7050030A805183030
:10162200AC002C08B0000130B135B20DB30D890BFE
:10163200152B28082B02031D242B27082A02031D21
:10164200242B26082902031C2D2B2608A902270871
:10165200AA3B2808AB3B31140130A935AA0DAB0DCA
:10166200890B2E2B0130B002031D142B3108F2001E
:101672003208F3003308F4003408AC002C08F500FB
:101682003508AD002D08F600873197277208200033
:10169200A6007308A7007408A800080020004F08DD
:1016A200D5005008D6005108D7000310560D570D2B
:1016B200D8005808D9005908031D662B0030CF0006
:1016C2000030D0000030D10008005208D500530885
:1016D200D6005408D7000310560D570DD8005808ED
:1016E200DE005E08031D7C2B0030CF000030D000EE
:1016F2000030D10008005E087B3ED5005508D907AE
:101702004F08D5005008D6005108D7001030D73600
:10171200D60CD50C890B882B5508D8005808DE004A
:101722005208D5005308D6005408D7001030D736D7
:10173200D60CD50C890B982B5508D8005808DE0614
:101742008030D5005508DE05D017D317FF30D205FB
:10175200FF30D3050030D4050030DA000030DB0062
:101762000030DC000730D5005508DD004F1CBF2BD0
:101772005208DA075308DB3D5408DC3D0130D1360C
:10178200D00CCF0C890BC02B0130D235D30DD40D28
:10179200890BC62B0130DD02031DB72B0930D500A2
:1017A2005508DD004F1CDB2B5208DA075308DB3DDE
:1017B2005408DC3D0130D136D00CCF0C890BDC2B28
:1017C2000130DC36DB0CDA0C890BE22B0130DD0256
:1017D200031DD32B5A08F2005B08F3005C08F400E7
:1017E2005908D5005508F5005E08D6005608F600DF
:1017F2008731972772082000CF007308D000740841
:10180200D100080021002708F2002808F300290867
:10181200F4000030F5000030F6000030F700973198
:10182200C3278C310318222C21302200BE00003045
:10183200BF0000302100A7000030A8000030A9003E
:1018420008002100290828042704031D352C223012
:101852002200BE000030BF0000302100A70000308F
:10186200A8000030A900080000302000DF0080300E
:10187200E000BF30E1000030CF000030D000403047
:10188200D100AA30EF006F08F50021002708F2000E
:101892002808F3002908F40097314B278C3172088D
:1018A2002000D2007308D3007408D4008B314F2378
:1018B2008C3120004F08E2005008E3005108E40098
:1018C2008C31C8248C3120005F082100A700200041
:1018D20060082100A800200061082100A900FF3053
:1018E200AA07FF30AB3D2708A0002808A10029085D
:1018F200A2000030A3009830A4000830A5000030F8
:10190200A60088311F208C3121002008A700210861
:10191200A8002208A90027082000DF0021002808CB
:101922002000E000210029082000E1007230CF00F1
:101932003130D0003F30D10021002B082000A1001F
:1019420021002A082000A00096311C268C3120009C
:101952002008D2002108D3002208D4008B314F2363
:101962008C3120004F08E2005008E3005108E400E7
:101972008C31C82420005F082100A70020006008E5
:101982002100A800200061082100A9000800200011
:101992005F08E5006008E6006108E7000310660DD5
:1019A200670DE8006808EB006208E5006308E600DE
:1019B2006408E7000310660D670DE8006808EA0096
:1019C2006B080319F02C6A086B020318F72C6B03DF
:1019D200FF3A6A07E50019306502031CF72C62081A
:1019E200DF006308E0006408E10008006A080319E8
:1019F20008006B086A020318062D6A03FF3A6B0798
:101A0200E50019306502031808000630E500650894
:101A1200E900E11BE917E41B6917E017FF30DF0556
:101A2200FF30E0050030E105E317FF30E205FF304B
:101A3200E3050030E4056A086B020318422D013009
:101A4200E235E30DE40D890B212D0130EA026A082B
:101A52006B0603193D2D0130E902690807390319A4
:101A62003D2D202D0130E136E00CDF0C890B342DA9
:101A72000130E5006508EB076B086A060319672D5C
:101A8200332D6B086A020318672D0130DF35E00D34
:101A9200E10D890B472D0130EB026A086B06031931
:101AA200632D0130E902690807390319632D462DB8
:101AB2000130E436E30CE20C890B5A2D0130E500CB
:101AC2006508EA076B086A06031D592DE91F792D7F
:101AD200FF30DF06FF30E006FF30E1060130DF07AE
:101AE200003003180130E007003003180130E1072D
:101AF200691F8B2DFF30E206FF30E306FF30E4065C
:101B02000130E207003003180130E3070030031808
:101B12000130E407E9015F08E2076008E33D61087C
:101B2200E43DE41FA62DFF30E206FF30E306FF305E
:101B3200E4060130E207003003180130E307003009
:101B420003180130E407E901E90A6208F2006308B8
:101B5200F3006408F4006B08E5006508F500690805
:101B6200E6006608F6008731972772082000DF003A
:101B72007308E0007408E10008002100C5013A087A
:101B820039043804031DE32D0030F2000030F30065
:101B92000030F4003B08F5003C08F6003D08F70071
:101BA2009731C3278D31031CDB2D21302200BE006B
:101BB2000030BF0000302100B8000030B900003012
:101BC200BA0008003D083C043B04031DEF2D003021
:101BD200B8008030B9003F30BA0008003808F2007F
:101BE2003908F3003A08F4000030F5000030F6003E
:101BF2000030F7009731C3278D310318702E210072
:101C02003B082000B60021003C082000B70021005C
:101C12003D082000B800893185218D312000390826
:101C22002100C900200038082100C8002000370820
:101C32002100C700200036082100C6004908200004
:101C4200A300210048082000A2002100470820002C
:101C5200A100210046082000A000963160268D31A7
:101C620021003D0820002206031D412E21003C08D0
:101C720020002106031D412E21003B0820002006E2
:101C82000319502E21302200BE000030BF00003068
:101C92002100B8000030B9000030BA00080021006D
:101CA20046080139BE003E08C50038082000CC00B5
:101CB200210039082000CD0021003A082000CE0082
:101CC2009431F9248D3120004C082100B800200005
:101CD2004D082100B90020004E082100BA00210061
:101CE2003808A7003908A8003A08A9008C31032453
:101CF2008D3121002708BF002808C0002908C10033
:101D02003B082000CF0021003C082000D000210029
:101D12003D082000D10021003F082000D200210010
:101D220040082000D300210041082000D4008B315C
:101D32004F238D3120004F082100C200200050089F
:101D42002100C300200051082100C4004208AE0057
:101D52004308AF004408B000863146268D31210089
:101D62002E08B8002F08B9003008BA004508031938
:101D7200080038082000CC00210039082000CD00DE
:101D820021003A082000CE009431F92420004C08AA
:101D92002100B80020004D082100B90020004E08A3
:101DA2002100BA0008002000A20030302206031DE4
:101DB200DC2E0330E22E313020002206031DEA2EF3
:101DC2000130F2000030F300893108218E310330F6
:101DD200F72E323020002206031DFF2E0130F200C2
:101DE2000030F300893108218E310130F2000030D9
:101DF200F300893108218E310330132F3330200054
:101E02002206031D1B2F0130F2000030F30089313E
:101E120008218E310130F2000030F30089310821AF
:101E22008E310130F2000030F300893108218E3109
:101E32000330C72F3430200022060319952F353086
:101E420020002206031D272F01302D2F36302000BF
:101E52002206031D352F0330F2000030F3008931D2
:101E620008218E310130422F373020002206031D17
:101E72004A2F0330F2000030F300893108218E31FD
:101E82000330F2000030F300893108218E31013035
:101E92005E2F383020002206031D662F0330F20029
:101EA2000030F300893108218E310330F200003016
:101EB200F300893108218E310330F2000030F30043
:101EC200893108218E310130812F393020002206DC
:101ED200031D892F0330F2000030F30089310821FD
:101EE2008E310330F2000030F300893108218E3147
:101EF2000330F2000030F300893108218E310330C3
:101F0200F2000030F300893108218E310130CE2FEA
:101F12002D3020002206031DA52F0330F2000030D1
:101F2200F300893108218E310130F2000030F300D4
:101F3200893108218E310130F2000030F3008931FD
:101F420008218E310130C02F2E3020002206031DC1
:101F5200D42F0130F2000030F300893108218E3194
:101F62000330F2000030F300893108218E31013054
:101F7200F2000030F300893108218E310330F20083
:101F82000030F300893108218E310130F200003037
:101F9200F300893108218E310330F2000030F30062
:101FA200893108218E312000A001A1012108803A47
:101FB200F7007B08803A7702031DE12F7A0820029E
:101FC2000318EA2F000001302000A0070030A13DD5
:101FD200D72F2000A001A1012108803AF7007B0839
:101FE200803A7702031DF72F7A08200203180800AF
:0E1FF200000001302000A0070030A13DED2FBF
:1029AC008B1095310C25080016302100970008007B
:1029BC0073082100E8007208E70008006400800139
:1029CC000131890BE52C0034FE0012001E00FE0BB9
:1029DC00EB2C0034013021009D00F0309E009F0153
:1029EC009B019C01080020004E084D044C04031967
:1029FC0008008030CE06080038302100990098017C
:102A0C0027009B0121001A1B0800082D21006708D4
:102A1C0068040319080068088A0067080A009531E1
:102A2C0008008B1021001517FF30F2000730F3005F
:102A3C009431DE240B16080095318F259531953194
:102A4C00022595319431DA2495319531172595313C
:102A5C0095317525080020002008F2002108F300AC
:102A6C00F4018E30A3002308F500F6018731972777
:102A7C0072082000A0007308A1007408A2000800CE
:102A8C002000BB01FB30BC000730BD003730B90063
:102A9C003908BA003608A7003508A6003A30B90044
:102AAC003908A8003B308431AC240800F5007508C7
:102ABC00F400F40DF40D21001D087406833974061E
:102ACC009D001D140D30890B692D000021009D14F3
:102ADC009D186E2D1C08F3001B08F2000800210045
:102AEC0091121112083023009F0090309D00243069
:102AFC009E0040309B0003309C002100EE01ED0154
:102B0C000830F2007208EC00EB01EA01E9019116C1
:102B1C00080022008C018D018E01303021008C00C8
:102B2C0070308D00E7308E00CD3023008E008D018B
:102B3C0010308C00F03024008D0038308C002100D7
:102B4C00951322009D010800F601F701721CB22DAD
:102B5C007408F6077508F73D0130F435F50D890B4F
:102B6C00B32D0130F336F20C890BB82D72087304B7
:102B7C00031DAC2D7708F3007608F2000800230043
:102B8C009D1CCA2D1D121D161908F00021006B0882
:102B9C00C53E860001308700700881000130F000CE
:102BAC007008EB0708306B020318EB010130F000E2
:102BBC007008E9070800083021006C020318FC2D8E
:102BCC006D08CD3E860001308700010823009A0075
:102BDC000130F00070082100ED0708306D02031879
:102BEC00ED010130F0007008EC070800111208002C
:102BFC002000BC003C08BB003B08BE00BF01C0016C
:102C0C003730BB003B08BD003608A7003508A600CE
:102C1C003D30BB003B08A8003E308431AC24200082
:102C2C003E08860001308700810108002000A501C4
:102C3C00A11F272EA009A109A00A0319A10AA50109
:102C4C00A50A2008F2002108F300F4018E30A3003D
:102C5C002308F5002508A4002408F60087319727DF
:102C6C0072082000A0007308A1007408A2000800DC
:102C7C00F30021006C0803193F2E111A492E73081A
:102C8C0023009A005D2E11127308F2006E08CD3EDF
:102C9C00860001308700720881000130F200720852
:102CAC00EE0708306E020318EE010130EC02210031
:102CBC00111608008E302000A4002408A500FF3057
:102CCC0023050319752E0130A336A20CA10CA00C00
:102CDC00890B6A2E0130A4002408A507652E200854
:102CEC00F2002108F3002208F4002508A4002408AF
:102CFC00F500F6018731972772082000A0007308B1
:102D0C00A1007408A2000800200020082104031967
:102D1C00B22EA501A50AA11B9D2E0130A035A10D37
:102D2C00890B942E0130A4002408A507912E2108AC
:102D3C002302031DA32E20082202031CA92E200807
:102D4C00A2022108A33B0130A136A00C890BAA2EAC
:102D5C000130A502031D9D2E2308A1002208A0000E
:102D6C00080021002208210420040319BF2E803002
:102D7C00A20623082000DF00210024082000E00028
:102D8C00210025082000E100210020082000E2009D
:102D9C00210021082000E300210022082000E4008B
:102DAC008C31C82420005F082100A000200060089E
:102DBC002100A100200061082100A20008000030C1
:102DCC002000A3000030A2000030A1000030A000C1
:102DDC00721CF92E76082000A0077708A13D780810
:102DEC00A23D7908A33D0130F635F70DF80DF90D2C
:102DFC00890BFA2E0130F536F40CF30CF20C890B1E
:102E0C00012F7508740473047204031DEE2E200048
:102E1C002308F5002208F4002108F3002008F20032
:102E2C000800F701F801720873040319462FF90121
:102E3C00F90AF31B2B2F0130F235F30D890B222FDE
:102E4C000130F6007608F9071F2F0130F735F80D21
:102E5C00890B2C2F73087502031D362F7208740210
:102E6C00031C3D2F7208F4027308F53B77140130F4
:102E7C00F336F20C890B3E2F0130F902031D2B2F78
:102E8C007808F3007708F2000800740873047204E1
:102E9C00031D5D2F7508860087010030C03FC13FC0
:102EAC000030F2000030F3000030F4000800740829
:102EBC007F39F600F701F635F70D750886008701A6
:102ECC007608C03F7708C13F730D730D0139F600CA
:102EDC00F70175088600870176088104413177086F
:102EEC008104750886008701823081074131FF30EB
:102EFC00813D7F31740880393F38F400F3130800AA
:102F0C002000CB018E30C8004808CA00C71F9B2F79
:102F1C00C409C509C609C709C40A0319C50A031996
:102F2C00C60A0319C70ACB01CB0AFF3047050319A0
:102F3C00AB2F0130C736C60CC50CC40C890BA02FA7
:102F4C000130C8004808CA079B2F4408F200450806
:102F5C00F3004608F4004A08C8004808F5004B087E
:102F6C00C9004908F6008731972772082000C40071
:102F7C007308C5007408C6000800F41FDA2F720924
:102F8C002000A0007309A1007409A200A00A031973
:102F9C00A10A0319A20A00302007F2000030213DDB
:102FAC00F3008030223DF400F71FF12F750920004B
:102FBC00A0007609A1007709A200A00A0319A10AB2
:102FCC000319A20A00302007F5000030213DF6005D
:102FDC008030223DF7008030F4068030F706770809
:102FEC007402031D080076087302031D080075089F
:102FFC0072020800003400340034003480343F3452
:10300C00F034FF34BE34E234A9343E3483347634A5
:10301C00BE34AE342B343E343C34C334BD34D234A1
:10302C0013343D347834D334BB343134303431340C
:10303C00303431343034313431343134313430345F
:10304C00313430343134303430343134313431344F
:10305C003134303430343034313431340034FD34A4
:10306C007D343D341D340D3405348534C534E5349C
:10307C00F5340034003400340034003400340034AF
:10308C000A34443454342334013414343334043483
:10309C0002343C342B3424341A3412343B3434345C
:1030AC006C341334033409340B340C341B344C346B
:1030BC005C346434003480343F34723431343F3403
:1030CC00FE3475343E34583463343D3495341D34F9
:1030DC003C34C534AE343A347934213439349434F4
:1030EC00803437349334A73435345634153434346F
:1030FC00313430343134303431343034313431349F
:10310C00313431340034013400340A340034643442
:10311C000034E834033410342734673449344934E8
:10312C000934013400341034F8345C3466342834F7
:10313C006E3475346C346C34293400345334743438
:10314C006134723474340A340034253463342034DA
:10315C000A34003425346434253464340034253482
:0C316C0073340A34003432342E34003442
:020000040001F9
:04000E00E4F10FFF0B
:00000001FF
