:1000000080311328080008007E14803120007F080A
:10001000F0000B1A8B1C0E2896313E26700820002B
:10002000FF007E100900803115284630840096308C
:100030008500EB30860000308700043096315C2666
:100040008031EF308400963085004F3086000130DB
:1000500087001C3096315C268031DC308400003013
:1000600085000F30963156268031203084000130D3
:1000700085002F30963156268031A0308400013023
:1000800085004930963156267E1020008031482860
:100090002100C701C80196318A2680312100C9019B
:1000A00065036604031D56288B1757288B1396315A
:1000B000622680319D302000AF009830B00096312C
:1000C000BE2680312300BE0122008E1508309631F5
:1000D000A92680317208FA007108F9009631962637
:1000E000803179082200A3007A08A4007B08A500CB
:1000F00023082000CB00220024082000CC0022008E
:1001000025082000CD0021006E08FA006D08F900D6
:1001100088310120803179082000A2007A08A300EC
:100120007B08A40022004F082000A50022005008F0
:100130002000A600220051082000A7008B31D82300
:10014000803120002208CE002308CF002408D000F0
:100150008C318124803120004B082100DF002000F9
:100160004C082100E00020004D082100E10009308A
:100170009631A92680317208FA007108F90096318B
:100180009626803179082200A0007A08A1007B0819
:10019000A20020082000CB00220021082000CC0073
:1001A000220022082000CD0021006E08FA006D0810
:1001B000F90088310120803179082000A2007A08F6
:1001C000A3007B08A40022004F082000A500220005
:1001D00050082000A600220051082000A7008B3103
:1001E000D823803120002208CE002308CF00240825
:1001F000D0008C318124803120004B082100DC00AC
:1002000020004C082100DD0020004D082100DE0008
:100210009D0122008E11C3302100DC007830DD000A
:100220004430DE000F30DF007830E0004430E10081
:100230000030B7000030B8004030B9005F08B400AB
:100240006008B5006108B6008E31F72680312100C4
:100250003408CD003508CE003608CF000030B70096
:100260004030B8004030B9005F08B4006008B50005
:100270006108B6008E31F726803121003408D000A5
:100280003508D1003608D200220058082000CB00E3
:10029000220059082000CC0022005A082000CD007E
:1002A00021004D082000CE0021004E082000CF0084
:1002B00021004F082000D0008C31812480312000A3
:1002C0004B08DB004C08DC004D08DD0022005B0819
:1002D0002000CB0022005C082000CC0022005D083A
:1002E0002000CD00210050082000CE002100510840
:1002F0002000CF00210052082000D0008C31812442
:10030000803120004B08DE004C08DF004D08E00083
:100310008E310126803120005B082100D3002000AF
:100320005C082100D40020005D082100D5005F0892
:100330002000CB00210060082000CC0021006108D3
:100340002000CD00220055082000CE0022005608D3
:100350002000CF00220057082000D0008C318124DB
:10036000803120004B08DB004C08DC004D08DD002C
:10037000210053082000DE00210054082000DF0087
:10038000210055082000E0008E3101268031200038
:100390005B082100D60020005C082100D700200067
:1003A0005D082100D800220052082000DB00220056
:1003B00053082000DC00220054082000DD0021004A
:1003C00056082000DE00210057082000DF00210031
:1003D00058082000E0008E310126803120005B08A3
:1003E0002200B20020005C082200B30020005D085B
:1003F0002200B40000302100B7000030B8004030C7
:10040000B9005C08B4005D08B5005E08B6008E3126
:10041000F726803121003408CD003508CE0036089B
:10042000CF000030B7004030B8004030B9005C0861
:10043000B4005D08B5005E08B6008E31F726803145
:1004400021003408D0003508D1003608D20022003F
:1004500058082000CB00220059082000CC002200C0
:100460005A082000CD0021004D082000CE002100B8
:100470004E082000CF0021004F082000D0008C3112
:100480008124803120004B08DB004C08DC004D0843
:10049000DD0022005B082000CB0022005C08200069
:1004A000CC0022005D082000CD0021005008200073
:1004B000CE00210051082000CF002100520820006A
:1004C000D0008C318124803120004B08DE004C08A4
:1004D000DF004D08E0008E310126803120005B08EE
:1004E0002100D30020005C082100D40020005D081A
:1004F0002100D5005C082000CB0021005D08200011
:10050000CC0021005E082000CD002200550820000C
:10051000CE00220056082000CF00220057082000FD
:10052000D0008C318124803120004B08DB004C0846
:10053000DC004D08DD00210053082000DE00210012
:1005400054082000DF00210055082000E0008E3113
:100550000126803120005B082100D60020005C08C5
:100560002100D70020005D082100D8002200520899
:100570002000DB00220053082000DC002200540889
:100580002000DD00210056082000DE002100570871
:100590002000DF00210058082000E0008E310126F5
:1005A000803120005B082200AF0020005C082200A0
:1005B000B00020005D082200B1002F082000DB0001
:1005C000220030082000DC00220031082000DD007D
:1005D000220032082000C800220033082000C90091
:1005E000220034082000CA0096316B26803120009A
:1005F0004808DE004908DF004A08E0008E31012685
:10060000803120005B082100CA0020005C08210026
:10061000CB0020005D082100CC0000302000CB0082
:10062000C830CC004230CD000030DB00C030DC00F0
:100630004030DD0021004A082000DE0021004B0888
:100640002000DF0021004C082000E0008E31012650
:10065000803120005B08CE005C08CF005D08D00030
:100660008C318124803120004B082200AC00200016
:100670004C082200AD0020004D082200AE004030A2
:100680002000CB001C30CC004630CD0022002C08CE
:100690002000CE0022002D082000CF0022002E08CE
:1006A0002000D0008C318124803120004B082200B2
:1006B000AC0020004C082200AD0020004D082200B4
:1006C000AE002C082100E20022002D082100E300EA
:1006D00022002E082100E40062082000A50021006D
:1006E00063082000A600210064082000A700503005
:1006F000A200C330A3004730A4008B31D82380313F
:1007000020002208B2002308B3002408B4008A3174
:1007100026228031200033082100EA002000320820
:100720002100E90062082000DB00210063082000AE
:10073000DC00210064082000DD000030F8000130FA
:10074000F7008630F600A030F50021006908F100BE
:100750006A08F200890D893B8909F300F40097319A
:100760009D27803174082000C3007308C2007208FE
:10077000C1007108C00088319820803120004008F5
:10078000C8004108C9004208CA0096316B26803172
:1007900020004808DE004908DF004A08E0008E31EA
:1007A0000126803120005B082200BE0020005C088A
:1007B0002200BF0020005D082200C0003E0820008B
:1007C000A50022003F082000A600220040082000CB
:1007D000A7004030A2001C30A3004630A4008B319B
:1007E000D823803120002208B2002308B300240857
:1007F000B4008A3126228031200033082100E8002D
:10080000200032082100E700A4302000AF0098301B
:10081000B00021006A082000B20021006908200011
:10082000B100210068082000B40021006708200002
:10083000B300E330973129278031E3302100C6002F
:100840004608DB005B0886000130870001080319B9
:10085000372C5B0886000130870001088631C726E7
:10086000803101302100C6004608DB07222C6503D9
:100870006604031D3D2C630062282100D901DA01C2
:10088000DA1F62280000000001302100D907003083
:10089000DA3D402C21002C082B042A04031D572C80
:1008A0000030AA008030AB003F30AC00080072304E
:1008B000F1003130F2004430F3002A08F4002B0834
:1008C000F5002C08F6008831222084310318752C9D
:1008D00022302200C1000030C200FF302100AA00F7
:1008E0007F30AB007F30AC00080021002A08F10007
:1008F0002B08F2002C08F3004930F4003A30F500E0
:10090000C430F6008831222084310318942C223020
:100910002200C1000030C20000302100AA000030D7
:10092000AB000030AC00080021002A08F1002B08C1
:10093000F2002C08F3000030F4000030F500003025
:10094000F6008831222084310318A82C0130A92C0C
:1009500000302100AD002D08B30033080319CA2C64
:100960002A082000C80021002B082000C90021000F
:100970002C082000CA0096316B26843120004808DC
:100980002100AA00200049082100AB0020004A08ED
:100990002100AC00AA302000CB00B830CC003F30A2
:1009A000CD0021002A082000CE0021002B082000C5
:1009B000CF0021002C082000D0008C31812484310C
:1009C00020004B082100AA0020004C082100AB00A9
:1009D00020004D082100AC002A082000E80021007A
:1009E0002B082000E90021002C082000EA008B31B0
:1009F0003E238431200068082100AE0020006908F1
:100A00002100AF0020006A082100B0002E0820005D
:100A1000B20021002F082000B30021003008200080
:100A2000B4008A3126228431200033082100B2002C
:100A3000200032082100B1003208FA003108F90024
:100A400088310120843179082000E8007A08E90023
:100A50007B08EA0021002A082000EB0021002B0877
:100A60002000EC0021002C082000ED0097310B271E
:100A70008431200068082100AA00200069082100B4
:100A8000AB0020006A082100AC002A082000E80022
:100A900021002B082000E90021002C082000EA009A
:100AA0002B30EB009830EC000930ED000030EE0008
:100AB000893139218431200068082100A3002000F9
:100AC00069082100A40020006A082100A50032085E
:100AD000A7003108A6008931AD2184312100230807
:100AE000AA002408AB002508AC003308031908004D
:100AF0002A0A7F3003192B067F3003192C06031DA9
:100B0000882D0030AA000030AB000030AC00080097
:100B10002A082000A20021002B082000A3002100A9
:100B20002C082000A4000030A5008030A6003F3033
:100B3000A7008B31D823200022082100AA00200022
:100B400023082100AB00200024082100AC0008008D
:100B50002000AE0020002308A6002208A500A20A5B
:100B60000319A30A25088400260885000008A700A9
:100B70002708AD002D080319C42E25302D060319B2
:100B8000E92D2E0A86008701160001040319D52DD0
:100B90002D08A5002508F1002E0A86008701413F97
:100BA0008A00403F0A008531AA2D20002D08A500AB
:100BB0002E0886008701010886000130870025087D
:100BC00081000130A5002E088600870125088107D5
:100BD000AA2DA9012308A6002208A500A20A03192C
:100BE000A30A25088400260885000008AD00003A05
:100BF0000319C42E643A0319012E0D3A0319012E6C
:100C0000AA2D24088600870101088400850102308E
:100C10008107003FAB00013FAC00AC1F182E033032
:100C2000A5002508A904AB09AC09AB0A0319AC0A55
:100C3000AD01AD0A05302D0603193D2E2D08A50086
:100C4000A601A535A60D8930250784009830263DDC
:100C50008500003FA700013FA80028082C02031DC3
:100C6000332E27082B02031C3D2E0130A50025083A
:100C7000AD0705302D06031D1E2E29080339031963
:100C8000682E2E0A86008701160001040319552ECE
:100C90002D30A5002508F1002E0A86008701413F6E
:100CA0008A00403F0A008631682E2D302000A500C2
:100CB0002E0886008701010886000130870025087C
:100CC00081000130A5002E088600870125088107D4
:100CD00020002D08A5002508AA00FF302000A5004F
:100CE0002508AA072A0A0319AA2D0A30F90000309C
:100CF000FA002A08A500A601A535A60D893025070A
:100D000084009830263D8500003FF100013FF2004D
:100D10002C08F4002B08F3009731CC27853172089A
:100D2000FC007108FB009731702785317908303E4F
:100D30002000A7002708AD002E0A860087011600B4
:100D400001040319B02E2D08A5002508F1002E0A74
:100D500086008701413F8A00403F0A0086316D2EA0
:100D600020002D08A5002E088600870101088600B6
:100D700001308700250881000130A5002E0886007B
:100D80008701250881076D2EA201A3010800F90043
:100D900030307906031DCE2E0330D32E3130790644
:100DA000031DDB2E0130F1000030F2008A31AD224C
:100DB00086310330E72E32307906031DEF2E0130E5
:100DC000F1000030F2008A31AD2286310130F100AD
:100DD0000030F2008A31AD2286310330022F3330E9
:100DE0007906031D0A2F0130F1000030F2008A312C
:100DF000AD2286310130F1000030F2008A31AD229F
:100E000086310130F1000030F2008A31AD228631A6
:100E10000330AE2F3430790603197D2F3530790633
:100E2000031D142F0130192F36307906031D212F91
:100E30000330F1000030F2008A31AD2286310130FA
:100E40002D2F37307906031D352F0330F100003088
:100E5000F2008A31AD2286310330F1000030F20019
:100E60008A31AD2286310130482F38307906031D92
:100E7000502F0330F1000030F2008A31AD2286316C
:100E80000330F1000030F2008A31AD2286310330A8
:100E9000F1000030F2008A31AD22863101306A2F34
:100EA00039307906031D722F0330F1000030F20053
:100EB0008A31AD2286310330F1000030F2008A31F0
:100EC000AD2286310330F1000030F2008A31AD22CC
:100ED00086310330F1000030F2008A31AD228631D4
:100EE0000130B52F2D307906031D8D2F0330F10011
:100EF0000030F2008A31AD2286310130F10000303D
:100F0000F2008A31AD2286310130F1000030F2006A
:100F10008A31AD2286310130A72F2E307906031D8C
:100F2000BB2F0130F1000030F2008A31AD22863152
:100F30000330F1000030F2008A31AD2286310130F9
:100F4000F1000030F2008A31AD2286310330F10029
:100F50000030F2008A31AD2286310130F1000030DC
:100F6000F2008A31AD2286310330F1000030F20008
:100F70008A31AD228631F701F8017808803AF6000F
:100F800021006C08803A7602031DC82F6B08770297
:100F90000318D02F00000130F7070030F83DBD2FB7
:100FA000F701F8017808803AF60021006C08803AD1
:100FB0007602031DDD2F6B0877020318080000007E
:100FC0000130F7070030F83DD22FF501F601711C12
:100FD000ED2F7308F5077408F63D0130F335F40D75
:100FE000890BEE2F0130F236F10C890BF32F7108CB
:100FF0007204031DE72F7608F2007508F10008005F
:10100200FC01FA1F0B28F909FA09F90A0319FA0A6D
:10101200FC01FC0A7908F1007A08F200F3018E3033
:101022002000A0002008F4007C08A1002108F5009F
:101032008831D5207108F9007208FA007308FB00A4
:101042000800F31F38287109F7007209F8007309C4
:10105200F900F70A0319F80A0319F90A00307707A9
:10106200F1000030783DF2008030793DF300F61F48
:101072004E287409F7007509F8007609F900F70A95
:101082000319F80A0319F90A00307707F40000304F
:10109200783DF5008030793DF6008030F3068030EF
:1010A200F60676087302031D080075087202031D16
:1010B2000800740871020800730872047104031DA9
:1010C2006F287408860087010030C03FC13F00309E
:1010D200F1000030F2000030F300080073087F399D
:1010E200F500F601F535F60D7408860087017508DE
:1010F200C03F7608C13F720D720D0139F500F6014D
:1011020074088600870175088104413176088104DC
:10111200740886008701823081074131FF30813DAA
:101122007F31730880393F38F300F2130800200042
:10113200C7018E30C4004408C600C31FAD28C009D1
:10114200C109C209C309C00A0319C10A0319C20AA3
:101152000319C30AC701C70AFF3043050319BD2893
:101162000130C336C20CC10CC00C890BB22801304D
:10117200C4004408C607AD284008F1004108F20047
:101182004208F3004608C4004408F4004708C500BA
:101192004508F5008831D52071082000C00072088A
:1011A200C1007308C200080074080319DD2873081F
:1011B20072047104031DEE280030F1000030F200C9
:1011C2000030F30008000130F6007608F407013021
:1011D200F336F20CF10C890BE928FE307305031982
:1011E2000729E4280130F6007608F4070130F107F8
:1011F200003003180130F207003003180130F30702
:101202000130F336F20CF10C890B0229FF30730521
:1012120003191429F3280130F4020130F135F20DDB
:10122200F30D890B0F29F21B1A29023074020318DD
:101232000C2974182229FF30F1057F30F205FF30A6
:10124200F3050310F40C7408F600F701F8011030EE
:10125200F635F70DF80D890B29297608F104770880
:10126200F2047808F304750803190800F31708005C
:1012720020006E08F2006D08F1000330F300003028
:10128200F4008731E527893120006B08710784005B
:101292006C08723D8500003F2100A000013FA100C3
:1012A200023FA20020006D086E040319A029FF303E
:1012B2002000ED07FF30EE3D6E08F2006D08F100F0
:1012C2000330F3000030F4008731E5278931200034
:1012D2006B08710784006C08723D8500003FDB00DB
:1012E200013FDC00023FDD00210020082000CB008E
:1012F200210021082000CC00210022082000CD007E
:101302006808CE006908CF006A08D0008C318124B9
:10131200893120004B08DE004C08DF004D08E00058
:101322008E310126893120005B082100A0002000B7
:101332005C082100A10020005D0821005229210043
:1013420020082000E800210021082000E9002100F7
:1013520022082000EA0008002100250824042304B2
:10136200031DBA290030A3000030A4000030A500FC
:10137200080025087F39A800A901A835A90D280869
:10138200A6072908A73D240D240D0139A800A901AB
:101392002808A6072908A73DA71FDC29223022001A
:1013A200C1000030C20000302100A3000030A400C0
:1013B2000030A50008002708803AA80081302802E2
:1013C200031DE52900302602031C0E2A22302200CA
:1013D200C1000030C20021002308F1002408F200FD
:1013E2002508F3000030F4000030F5000030F6006C
:1013F2008831222089310318062AFF302100A300F8
:101402007F30A400FF30A5000800FF302100A300B8
:101412007F30A4007F30A500080021002708A90022
:101422002608A800290DA90CA80C25082806803931
:101432002806A50026080139A800A80CA80C240833
:1014420028067F392806A400080020003208B600CA
:101452003308B7003408B8000310370D380DB9004F
:101462003908BF003F08031D3F2A0030B500003095
:10147200B4000030B3000030B20008003208B600F9
:101482003308B7003408B8001730B836B70CB60CBA
:10149200890B462A3608B9003908BA00B317FF305B
:1014A200B205FF30B3050030B4053208BB00330883
:1014B200BC003408BD00BE018E30BF02BF1F7D2AB2
:1014C2003F08803A8F3E03186F2A0030B500003083
:1014D200B4000030B3000030B20008000130BE3664
:1014E200BD0CBC0CBB0C890B702A0130B60036084F
:1014F200BF070319962A6F2A18303F02031C932A4A
:101502000030B5000030B4000030B3000030B2004B
:1015120008000130BB35BC0DBD0DBE0D890B8B2AF9
:101522000130BF023F08031D8A2A3A080319A42A80
:10153200BB09BC09BD09BE09BB0A0319BC0A0319D0
:10154200BD0A0319BE0A3E08B5003D08B4003C08B6
:10155200B3003B08B200080022000E1671037204A9
:10156200031DCE2AF401F5017508803AF30021002B
:101572006C08803A7302031DC02A6B0874020318B8
:10158200CE2A0000000000000000103022008E066B
:101592000130F4070030F53DB52A033071067204BC
:1015A200031D242BF401F5017508803AF300210094
:1015B2006C08803A7302031DE02A6B087402031858
:1015C200EE2A0000000000000000103022008E060B
:1015D2000130F4070030F53DD52AF401F501750814
:1015E200803AF30021006C08803A7302031DFB2A43
:1015F2006B0874020318092B0000000000000000B1
:10160200103022008E060130F4070030F53DF02A3A
:10161200F401F5017508803AF30021006C08803A64
:101622007302031D162B6B0874020318242B00008F
:10163200000000000000103022008E060130F40786
:101642000030F53D0B2B22000E12F401F501750856
:10165200803AF30021006C08803A7302031D332B99
:101662006B0874020318080000000000000000006C
:101672000130F4070030F53D282B20006808F10006
:101682006908F2006A08F300A330EB006B08F4006B
:1016920088315D208B312100A41F712B2000680846
:1016A200F1006908F2006A08F3000030F40000302B
:1016B200F5000030F600883122208B310318692BA7
:1016C20000302000E8008030E900BF30EA00080066
:1016D20000302000E8000030E9000030EA00080095
:1016E20000302100240215300319230203180800D8
:1016F20020006808B2006908B3006A08B4008A31A1
:1017020026228B3120003508C3003408C20033087A
:10171200C1003208C000883198208B312000400877
:101722002100A000200041082100A1002000420861
:101732002100A20020006808F1006908F2006A088E
:10174200F30021002008F4002108F5002208F60029
:10175200883122208B310318CB2B00302000DB0094
:101762008030DC00BF30DD00210020082000DE00D8
:10177200210021082000DF00210022082000E000D3
:101782008E31012620005B08E8005C08E9005D0854
:10179200EA000800210020082000E80021002108BA
:1017A2002000E900210022082000EA0008002000B1
:1017B2002508A8002608A9002708AA000310290D59
:1017C2002A0DAB002B08B0003008031DEF2B0030B0
:1017D200A2000030A3000030A40008002208A800E4
:1017E2002308A9002408AA000310290D2A0DAB0022
:1017F2002B08B1003108031D052C0030A200003077
:10180200A3000030A40008000030AD000030AE009C
:101812000030AF0089303107A8002808B00225083F
:10182200A8002608A9002708AA001030AA36A90C89
:10183200A80C890B172C2808AB002B08B100220832
:10184200A8002308A9002408AA001030AA36A90C6F
:10185200A80C890B272C2808AB002B08B106803076
:10186200A8002808B105A617FF30A505FF30A60578
:101872000030A705A317FF30A205FF30A3050030F3
:10188200A4051830A8002808AC000130AD35AE0D13
:10189200AF0D890B472C24082702031D562C230861
:1018A2002602031D562C22082502031C5F2C220847
:1018B200A5022308A63B2408A73B2D140130A53519
:1018C200A60DA70D890B602C0130AC02031D462C1E
:1018D2002D08F1002E08F2002F08F3003008A800AE
:1018E2002808F4003108A9002908F5008831D5201C
:1018F20071082000A2007208A3007308A400080067
:1019020020004B08D1004C08D2004D08D300031030
:10191200520D530DD4005408D5005508031D982CC0
:101922000030CB000030CC000030CD0008004E0863
:10193200D1004F08D2005008D3000310520D530DAE
:10194200D4005408DA005A08031DAE2C0030CB0034
:101952000030CC000030CD0008005A087B3ED10098
:101962005108D5074B08D1004C08D2004D08D300CE
:101972001030D336D20CD10C890BBA2C5108D400BA
:101982005408DA004E08D1004F08D2005008D300A4
:101992001030D336D20CD10C890BCA2C5108D4008A
:1019A2005408DA068030D1005108DA05CC17CF1777
:1019B200FF30CE05FF30CF050030D0050030D60015
:1019C2000030D7000030D8000730D1005108D900CC
:1019D2004B1CF12C4E08D6074F08D73D5008D83D76
:1019E2000130CD36CC0CCB0C890BF22C0130CE352C
:1019F200CF0DD00D890BF82C0130D902031DE92C33
:101A02000930D1005108D9004B1C0D2D4E08D607C4
:101A12004F08D73D5008D83D0130CD36CC0CCB0C09
:101A2200890B0E2D0130D836D70CD60C890B142D0C
:101A32000130D902031D052D5608F1005708F200A6
:101A42005808F3005508D1005108F4005A08D20092
:101A52005208F5008831D52071082000CB007208A9
:101A6200CC007308CD00080021002308F1002408EF
:101A7200F2002508F3000030F4000030F5000030D9
:101A8200F600883122208D310318542D2130220096
:101A9200C1000030C20000302100A3000030A400C9
:101AA2000030A50008002100250824042304031D9A
:101AB200672D22302200C1000030C2000030210018
:101AC200A3000030A4000030A50008000030200070
:101AD200DB008030DC00BF30DD000030CB000030A6
:101AE200CC004030CD00A630EF006F08F40021009A
:101AF2002308F1002408F2002508F30088315D2054
:101B02008D3171082000CE007208CF007308D0001A
:101B12008C3181248D3120004B08DE004C08DF001F
:101B22004D08E0008E3101268D3120005B08210036
:101B3200A30020005C082100A40020005D08210011
:101B4200A500FF30A607FF30A73D23082000E800CC
:101B5200210024082000E900210025082000EA00D5
:101B62004930EB009830EC000830ED000030EE0018
:101B7200893139218D31200068082100A30020001D
:101B820069082100A40020006A082100A50023089A
:101B92002000DB00210024082000DC0021002508B1
:101BA2002000DD007230CB003130CC003F30CD0060
:101BB20021002708FA002608F900883101208D311A
:101BC20079082000CE007A08CF007B08D0008C3143
:101BD20081248D3120004B08DE004C08DF004D08C7
:101BE200E0008E31012620005B082100A3002000C6
:101BF2005C082100A40020005D082100A500080067
:101C020020005B08E1005C08E2005D08E3000310CD
:101C1200620D630DE4006408E7005E08E1005F08FE
:101C2200E2006008E3000310620D630DE400640843
:101C3200E60067080319292E660867020318302E8A
:101C42006703FF3A6607E10019306102031C302E78
:101C52005E08DB005F08DC006008DD000800660843
:101C6200031908006708660203183F2E6603FF3A4D
:101C72006707E10019306102031808000630E1002D
:101C82006108E500DD1BE517E01B6517DC17FF3077
:101C9200DB05FF30DC050030DD05DF17FF30DE0538
:101CA200FF30DF050030E0056608670203187B2E6F
:101CB2000130DE35DF0DE00D890B5A2E0130E602D0
:101CC200660867060319762E0130E50265080739B2
:101CD2000319762E592E0130DD36DC0CDB0C890B14
:101CE2006D2E0130E1006108E707670866060319F7
:101CF200A02E6C2E670866020318A02E0130DB3579
:101D0200DC0DDD0D890B802E0130E70266086706C7
:101D120003199C2E0130E5026508073903199C2E30
:101D22007F2E0130E036DF0CDE0C890B932E013062
:101D3200E1006108E60767086606031D922EE51FAB
:101D4200B22EFF30DB06FF30DC06FF30DD0601304D
:101D5200DB07003003180130DC07003003180130C4
:101D6200DD07651FC42EFF30DE06FF30DF06FF30C1
:101D7200E0060130DE07003003180130DF070030D3
:101D820003180130E007E5015B08DE075C08DF3D70
:101D92005D08E03DE01FDF2EFF30DE06FF30DF068C
:101DA200FF30E0060130DE07003003180130DF07A4
:101DB200003003180130E007E501E50A5E08F10092
:101DC2005F08F2006008F3006708E1006108F400B0
:101DD2006508E2006208F5008831D520710820000C
:101DE200DB007208DC007308DD0008002100C1017D
:101DF200360835043404031D1C2F0030F100003076
:101E0200F2000030F3003708F4003808F500390812
:101E1200F600883122208E31031C142F213022003B
:101E2200C1000030C20000302100B4000030B50013
:101E32000030B6000800390838043704031D282F83
:101E42000030B4008030B5003F30B60008003408DE
:101E5200F1003508F2003608F3000030F4000030DB
:101E6200F5000030F600883122208E3103189C2FB5
:101E7200210037082000B200210038082000B300FA
:101E8200210039082000B4008A3126228E31200038
:101E920035082100C500200034082100C4002000BC
:101EA20033082100C300200032082100C200450887
:101EB200FC004408FB004308FA004208F90097318D
:101EC20047278E31210039087B06031D6E2F380803
:101ED2007A06031D6E2F3708790603197D2F2130EC
:101EE2002200C1000030C20000302100B4000030E6
:101EF200B5000030B600080042080139BA003A08BD
:101F0200C10034082000C800210035082000C900A3
:101F1200210036082000CA0096316B268E3120003F
:101F220048082100B400200049082100B500200023
:101F32004A082100B60021003408A3003508A40095
:101F42003608A5008D3135258E3121002308BB00CE
:101F52002408BC002508BD0037082000CB00210062
:101F620038082000CC00210039082000CD002100D3
:101F72003B082000CE0021003C082000CF002100B9
:101F82003D082000D0008C3181248E3120004B0886
:101F92002100BE0020004C082100BF0020004D0897
:101FA2002100C0003E08AA003F08AB004008AC0078
:101FB20084314A248E3121002A08B4002B08B5004E
:101FC2002C08B60041080319080034082000C80094
:101FD200210035082000C900210036082000CA006F
:101FE20096316B26200048082100B40020004908E1
:0E1FF2002100B50020004A082100B6000800BA
:102C7C008B1096317426080016302100970008003E
:102C8C0014340034FF34033472082200EC00710851
:102C9C00EB00080021009901980127009B01080016
:102CAC00640080010131890B572E0034FE001200A4
:102CBC001E00FE0B5D2E0034013021009D00F03013
:102CCC009E009F019B019C01080020004A084904BA
:102CDC004804031908008030CA06080022006B085B
:102CEC006C04031908006C088A006B080A00963102
:102CFC0008008B10210015170230F1000030F20093
:102D0C0096314A260B1608009631D4269631963108
:102D1C005026963196314226963196317F26080000
:102D2C007908F1007A08F200F3018E30FC007C087F
:102D3C00F400F5018831D5207108F9007208FA0009
:102D4C007308FB000800F4007408F300F30DF30D96
:102D5C0021001D087306833973069D001D14210084
:102D6C009D149D18B72E1C08F2001B08F1000800DA
:102D7C002000B3010330B4000030B5003130B10095
:102D8C003108B2003008A3002F08A2003230B10085
:102D9C003108A40033308531A825080022008C01AD
:102DAC008D018E01303021008C00F0308D00E73029
:102DBC008E00CD3023008E008D0110308C00F03051
:102DCC0024008D0038308C002100951322009D01C9
:102DDC0008004034FF344434DB344C34433449343D
:102DEC003734BE344434C134B63443349234B03402
:102DFC009A34D534413401340034A93498346434D1
:102E0C009834733498347E34983420006A086904FA
:102E1C0068040319132F8030EA066B08DB006C087A
:102E2C00DC006D08DD006808DE006908DF006A0858
:102E3C00E0008E31012620005B08E8005C08E90008
:102E4C005D08EA0008002000B6003608B500350819
:102E5C00B800B901BA013130B5003508B7003008F7
:102E6C00A3002F08A2003730B5003508A400383075
:102E7C008531A825200038088600013087008101A3
:102E8C0008008E302000A0002008A100FF307C0537
:102E9C0003195C2F0130FC36FB0CFA0CF90C890B76
:102EAC00512F0130A0002008A1074C2F7908F10008
:102EBC007A08F2007B08F3002108A0002008F40037
:102ECC00F5018831D5207108F9007208FA007308F1
:102EDC00FB00080079087A040319982F2000A1013F
:102EEC00A10AFA1B832F0130F935FA0D890B7A2FC1
:102EFC000130A0002008A107772F7A087C02031D5F
:102F0C00892F79087B02031C8F2F7908FB027A0822
:102F1C00FC3B0130FA36F90C890B902F0130A102E1
:102F2C00031D832F7C08FA007B08F9000800003091
:102F3C00FC000030FB000030FA000030F900711C7E
:102F4C00AF2F7508F9077608FA3D7708FB3D78082E
:102F5C00FC3D0130F535F60DF70DF80D890BB02F52
:102F6C000130F436F30CF20CF10C890BB72F74080A
:102F7C00730472047104031DA52F7C08F4007B08F4
:102F8C00F3007A08F2007908F1000800F601F70165
:102F9C00710872040319FB2FF801F80AF21BE02FD9
:102FAC000130F135F20D890BD72F0130F500750882
:102FBC00F807D42F0130F635F70D890BE12F720885
:102FCC007402031DEB2F71087302031CF22F71089E
:102FDC00F3027208F43B76140130F236F10C890BD3
:102FEC00F32F0130F802031DE02F7708F20076086A
:102FFC00F1000800FD347D343D341D340D340534AE
:10300C008534C534E534F5340034003400340034F0
:10301C000034003400340A3444345434233401343E
:10302C0014343334043402343C342B3424341A3402
:10303C0012343B3434346C341334033409340B34CD
:10304C000C341B344C345C346434003480343F34E2
:10305C00723431343F34FE3475343E345834633476
:10306C003D3495341D343C34C534AE343A34793463
:10307C00213439349434803437349334A734353490
:10308C005634153434340034003400340034803475
:10309C003F34F034FF34BE34E234A9343E3483344C
:1030AC007634BE34AE342B343E343C34C334BD346D
:1030BC00D23413343D347834D334BB3431343034DB
:1030CC0031343034313430343134313431343134CE
:1030DC0030343134303431343034303431343134C0
:1030EC0031343134303430343034313431340034E0
:1030FC00313430343134303431343034313431349F
:10310C00313431340034013400340A340034643442
:10311C000034E834033410342734673449344934E8
:10312C000934013400341034F8345C3466345334CC
:10313C0074346134723474340A3400342534643495
:0C314C0025346434003432342E34003456
:020000040001F9
:04000E00E4F10FFE0C
:00000001FF
